{
  "_format": "hh-sol-artifact-1",
  "contractName": "ERC721Base",
  "sourceName": "@thirdweb-dev/contracts/base/ERC721Base.sol",
  "abi": [
    {
      "inputs": [
        {
          "internalType": "string",
          "name": "_name",
          "type": "string"
        },
        {
          "internalType": "string",
          "name": "_symbol",
          "type": "string"
        },
        {
          "internalType": "address",
          "name": "_royaltyRecipient",
          "type": "address"
        },
        {
          "internalType": "uint128",
          "name": "_royaltyBps",
          "type": "uint128"
        }
      ],
      "stateMutability": "nonpayable",
      "type": "constructor"
    },
    {
      "inputs": [],
      "name": "ApprovalCallerNotOwnerNorApproved",
      "type": "error"
    },
    {
      "inputs": [],
      "name": "ApprovalQueryForNonexistentToken",
      "type": "error"
    },
    {
      "inputs": [],
      "name": "ApprovalToCurrentOwner",
      "type": "error"
    },
    {
      "inputs": [],
      "name": "ApproveToCaller",
      "type": "error"
    },
    {
      "inputs": [],
      "name": "BalanceQueryForZeroAddress",
      "type": "error"
    },
    {
      "inputs": [],
      "name": "MintToZeroAddress",
      "type": "error"
    },
    {
      "inputs": [],
      "name": "MintZeroQuantity",
      "type": "error"
    },
    {
      "inputs": [
        {
          "internalType": "address",
          "name": "operator",
          "type": "address"
        }
      ],
      "name": "OperatorNotAllowed",
      "type": "error"
    },
    {
      "inputs": [],
      "name": "OwnerQueryForNonexistentToken",
      "type": "error"
    },
    {
      "inputs": [],
      "name": "TransferCallerNotOwnerNorApproved",
      "type": "error"
    },
    {
      "inputs": [],
      "name": "TransferFromIncorrectOwner",
      "type": "error"
    },
    {
      "inputs": [],
      "name": "TransferToNonERC721ReceiverImplementer",
      "type": "error"
    },
    {
      "inputs": [],
      "name": "TransferToZeroAddress",
      "type": "error"
    },
    {
      "inputs": [],
      "name": "URIQueryForNonexistentToken",
      "type": "error"
    },
    {
      "anonymous": false,
      "inputs": [
        {
          "indexed": true,
          "internalType": "address",
          "name": "owner",
          "type": "address"
        },
        {
          "indexed": true,
          "internalType": "address",
          "name": "approved",
          "type": "address"
        },
        {
          "indexed": true,
          "internalType": "uint256",
          "name": "tokenId",
          "type": "uint256"
        }
      ],
      "name": "Approval",
      "type": "event"
    },
    {
      "anonymous": false,
      "inputs": [
        {
          "indexed": true,
          "internalType": "address",
          "name": "owner",
          "type": "address"
        },
        {
          "indexed": true,
          "internalType": "address",
          "name": "operator",
          "type": "address"
        },
        {
          "indexed": false,
          "internalType": "bool",
          "name": "approved",
          "type": "bool"
        }
      ],
      "name": "ApprovalForAll",
      "type": "event"
    },
    {
      "anonymous": false,
      "inputs": [
        {
          "indexed": false,
          "internalType": "string",
          "name": "prevURI",
          "type": "string"
        },
        {
          "indexed": false,
          "internalType": "string",
          "name": "newURI",
          "type": "string"
        }
      ],
      "name": "ContractURIUpdated",
      "type": "event"
    },
    {
      "anonymous": false,
      "inputs": [
        {
          "indexed": true,
          "internalType": "address",
          "name": "newRoyaltyRecipient",
          "type": "address"
        },
        {
          "indexed": false,
          "internalType": "uint256",
          "name": "newRoyaltyBps",
          "type": "uint256"
        }
      ],
      "name": "DefaultRoyalty",
      "type": "event"
    },
    {
      "anonymous": false,
      "inputs": [
        {
          "indexed": false,
          "internalType": "bool",
          "name": "restriction",
          "type": "bool"
        }
      ],
      "name": "OperatorRestriction",
      "type": "event"
    },
    {
      "anonymous": false,
      "inputs": [
        {
          "indexed": true,
          "internalType": "address",
          "name": "prevOwner",
          "type": "address"
        },
        {
          "indexed": true,
          "internalType": "address",
          "name": "newOwner",
          "type": "address"
        }
      ],
      "name": "OwnerUpdated",
      "type": "event"
    },
    {
      "anonymous": false,
      "inputs": [
        {
          "indexed": true,
          "internalType": "uint256",
          "name": "tokenId",
          "type": "uint256"
        },
        {
          "indexed": true,
          "internalType": "address",
          "name": "royaltyRecipient",
          "type": "address"
        },
        {
          "indexed": false,
          "internalType": "uint256",
          "name": "royaltyBps",
          "type": "uint256"
        }
      ],
      "name": "RoyaltyForToken",
      "type": "event"
    },
    {
      "anonymous": false,
      "inputs": [
        {
          "indexed": true,
          "internalType": "address",
          "name": "from",
          "type": "address"
        },
        {
          "indexed": true,
          "internalType": "address",
          "name": "to",
          "type": "address"
        },
        {
          "indexed": true,
          "internalType": "uint256",
          "name": "tokenId",
          "type": "uint256"
        }
      ],
      "name": "Transfer",
      "type": "event"
    },
    {
      "inputs": [],
      "name": "OPERATOR_FILTER_REGISTRY",
      "outputs": [
        {
          "internalType": "contract IOperatorFilterRegistry",
          "name": "",
          "type": "address"
        }
      ],
      "stateMutability": "view",
      "type": "function"
    },
    {
      "inputs": [
        {
          "internalType": "address",
          "name": "operator",
          "type": "address"
        },
        {
          "internalType": "uint256",
          "name": "tokenId",
          "type": "uint256"
        }
      ],
      "name": "approve",
      "outputs": [],
      "stateMutability": "nonpayable",
      "type": "function"
    },
    {
      "inputs": [
        {
          "internalType": "address",
          "name": "owner",
          "type": "address"
        }
      ],
      "name": "balanceOf",
      "outputs": [
        {
          "internalType": "uint256",
          "name": "",
          "type": "uint256"
        }
      ],
      "stateMutability": "view",
      "type": "function"
    },
    {
      "inputs": [
        {
          "internalType": "address",
          "name": "_to",
          "type": "address"
        },
        {
          "internalType": "uint256",
          "name": "_quantity",
          "type": "uint256"
        },
        {
          "internalType": "string",
          "name": "_baseURI",
          "type": "string"
        },
        {
          "internalType": "bytes",
          "name": "_data",
          "type": "bytes"
        }
      ],
      "name": "batchMintTo",
      "outputs": [],
      "stateMutability": "nonpayable",
      "type": "function"
    },
    {
      "inputs": [
        {
          "internalType": "uint256",
          "name": "_tokenId",
          "type": "uint256"
        }
      ],
      "name": "burn",
      "outputs": [],
      "stateMutability": "nonpayable",
      "type": "function"
    },
    {
      "inputs": [],
      "name": "contractURI",
      "outputs": [
        {
          "internalType": "string",
          "name": "",
          "type": "string"
        }
      ],
      "stateMutability": "view",
      "type": "function"
    },
    {
      "inputs": [
        {
          "internalType": "uint256",
          "name": "tokenId",
          "type": "uint256"
        }
      ],
      "name": "getApproved",
      "outputs": [
        {
          "internalType": "address",
          "name": "",
          "type": "address"
        }
      ],
      "stateMutability": "view",
      "type": "function"
    },
    {
      "inputs": [],
      "name": "getBaseURICount",
      "outputs": [
        {
          "internalType": "uint256",
          "name": "",
          "type": "uint256"
        }
      ],
      "stateMutability": "view",
      "type": "function"
    },
    {
      "inputs": [
        {
          "internalType": "uint256",
          "name": "_index",
          "type": "uint256"
        }
      ],
      "name": "getBatchIdAtIndex",
      "outputs": [
        {
          "internalType": "uint256",
          "name": "",
          "type": "uint256"
        }
      ],
      "stateMutability": "view",
      "type": "function"
    },
    {
      "inputs": [],
      "name": "getDefaultRoyaltyInfo",
      "outputs": [
        {
          "internalType": "address",
          "name": "",
          "type": "address"
        },
        {
          "internalType": "uint16",
          "name": "",
          "type": "uint16"
        }
      ],
      "stateMutability": "view",
      "type": "function"
    },
    {
      "inputs": [
        {
          "internalType": "uint256",
          "name": "_tokenId",
          "type": "uint256"
        }
      ],
      "name": "getRoyaltyInfoForToken",
      "outputs": [
        {
          "internalType": "address",
          "name": "",
          "type": "address"
        },
        {
          "internalType": "uint16",
          "name": "",
          "type": "uint16"
        }
      ],
      "stateMutability": "view",
      "type": "function"
    },
    {
      "inputs": [
        {
          "internalType": "address",
          "name": "owner",
          "type": "address"
        },
        {
          "internalType": "address",
          "name": "operator",
          "type": "address"
        }
      ],
      "name": "isApprovedForAll",
      "outputs": [
        {
          "internalType": "bool",
          "name": "",
          "type": "bool"
        }
      ],
      "stateMutability": "view",
      "type": "function"
    },
    {
      "inputs": [
        {
          "internalType": "address",
          "name": "_operator",
          "type": "address"
        },
        {
          "internalType": "uint256",
          "name": "_tokenId",
          "type": "uint256"
        }
      ],
      "name": "isApprovedOrOwner",
      "outputs": [
        {
          "internalType": "bool",
          "name": "isApprovedOrOwnerOf",
          "type": "bool"
        }
      ],
      "stateMutability": "view",
      "type": "function"
    },
    {
      "inputs": [
        {
          "internalType": "address",
          "name": "_to",
          "type": "address"
        },
        {
          "internalType": "string",
          "name": "_tokenURI",
          "type": "string"
        }
      ],
      "name": "mintTo",
      "outputs": [],
      "stateMutability": "nonpayable",
      "type": "function"
    },
    {
      "inputs": [
        {
          "internalType": "bytes[]",
          "name": "data",
          "type": "bytes[]"
        }
      ],
      "name": "multicall",
      "outputs": [
        {
          "internalType": "bytes[]",
          "name": "results",
          "type": "bytes[]"
        }
      ],
      "stateMutability": "nonpayable",
      "type": "function"
    },
    {
      "inputs": [],
      "name": "name",
      "outputs": [
        {
          "internalType": "string",
          "name": "",
          "type": "string"
        }
      ],
      "stateMutability": "view",
      "type": "function"
    },
    {
      "inputs": [],
      "name": "nextTokenIdToMint",
      "outputs": [
        {
          "internalType": "uint256",
          "name": "",
          "type": "uint256"
        }
      ],
      "stateMutability": "view",
      "type": "function"
    },
    {
      "inputs": [],
      "name": "operatorRestriction",
      "outputs": [
        {
          "internalType": "bool",
          "name": "",
          "type": "bool"
        }
      ],
      "stateMutability": "view",
      "type": "function"
    },
    {
      "inputs": [],
      "name": "owner",
      "outputs": [
        {
          "internalType": "address",
          "name": "",
          "type": "address"
        }
      ],
      "stateMutability": "view",
      "type": "function"
    },
    {
      "inputs": [
        {
          "internalType": "uint256",
          "name": "tokenId",
          "type": "uint256"
        }
      ],
      "name": "ownerOf",
      "outputs": [
        {
          "internalType": "address",
          "name": "",
          "type": "address"
        }
      ],
      "stateMutability": "view",
      "type": "function"
    },
    {
      "inputs": [
        {
          "internalType": "uint256",
          "name": "tokenId",
          "type": "uint256"
        },
        {
          "internalType": "uint256",
          "name": "salePrice",
          "type": "uint256"
        }
      ],
      "name": "royaltyInfo",
      "outputs": [
        {
          "internalType": "address",
          "name": "receiver",
          "type": "address"
        },
        {
          "internalType": "uint256",
          "name": "royaltyAmount",
          "type": "uint256"
        }
      ],
      "stateMutability": "view",
      "type": "function"
    },
    {
      "inputs": [
        {
          "internalType": "address",
          "name": "from",
          "type": "address"
        },
        {
          "internalType": "address",
          "name": "to",
          "type": "address"
        },
        {
          "internalType": "uint256",
          "name": "tokenId",
          "type": "uint256"
        }
      ],
      "name": "safeTransferFrom",
      "outputs": [],
      "stateMutability": "nonpayable",
      "type": "function"
    },
    {
      "inputs": [
        {
          "internalType": "address",
          "name": "from",
          "type": "address"
        },
        {
          "internalType": "address",
          "name": "to",
          "type": "address"
        },
        {
          "internalType": "uint256",
          "name": "tokenId",
          "type": "uint256"
        },
        {
          "internalType": "bytes",
          "name": "data",
          "type": "bytes"
        }
      ],
      "name": "safeTransferFrom",
      "outputs": [],
      "stateMutability": "nonpayable",
      "type": "function"
    },
    {
      "inputs": [
        {
          "internalType": "address",
          "name": "operator",
          "type": "address"
        },
        {
          "internalType": "bool",
          "name": "approved",
          "type": "bool"
        }
      ],
      "name": "setApprovalForAll",
      "outputs": [],
      "stateMutability": "nonpayable",
      "type": "function"
    },
    {
      "inputs": [
        {
          "internalType": "string",
          "name": "_uri",
          "type": "string"
        }
      ],
      "name": "setContractURI",
      "outputs": [],
      "stateMutability": "nonpayable",
      "type": "function"
    },
    {
      "inputs": [
        {
          "internalType": "address",
          "name": "_royaltyRecipient",
          "type": "address"
        },
        {
          "internalType": "uint256",
          "name": "_royaltyBps",
          "type": "uint256"
        }
      ],
      "name": "setDefaultRoyaltyInfo",
      "outputs": [],
      "stateMutability": "nonpayable",
      "type": "function"
    },
    {
      "inputs": [
        {
          "internalType": "bool",
          "name": "_restriction",
          "type": "bool"
        }
      ],
      "name": "setOperatorRestriction",
      "outputs": [],
      "stateMutability": "nonpayable",
      "type": "function"
    },
    {
      "inputs": [
        {
          "internalType": "address",
          "name": "_newOwner",
          "type": "address"
        }
      ],
      "name": "setOwner",
      "outputs": [],
      "stateMutability": "nonpayable",
      "type": "function"
    },
    {
      "inputs": [
        {
          "internalType": "uint256",
          "name": "_tokenId",
          "type": "uint256"
        },
        {
          "internalType": "address",
          "name": "_recipient",
          "type": "address"
        },
        {
          "internalType": "uint256",
          "name": "_bps",
          "type": "uint256"
        }
      ],
      "name": "setRoyaltyInfoForToken",
      "outputs": [],
      "stateMutability": "nonpayable",
      "type": "function"
    },
    {
      "inputs": [
        {
          "internalType": "address",
          "name": "_subscription",
          "type": "address"
        }
      ],
      "name": "subscribeToRegistry",
      "outputs": [],
      "stateMutability": "nonpayable",
      "type": "function"
    },
    {
      "inputs": [
        {
          "internalType": "bytes4",
          "name": "interfaceId",
          "type": "bytes4"
        }
      ],
      "name": "supportsInterface",
      "outputs": [
        {
          "internalType": "bool",
          "name": "",
          "type": "bool"
        }
      ],
      "stateMutability": "view",
      "type": "function"
    },
    {
      "inputs": [],
      "name": "symbol",
      "outputs": [
        {
          "internalType": "string",
          "name": "",
          "type": "string"
        }
      ],
      "stateMutability": "view",
      "type": "function"
    },
    {
      "inputs": [
        {
          "internalType": "uint256",
          "name": "_tokenId",
          "type": "uint256"
        }
      ],
      "name": "tokenURI",
      "outputs": [
        {
          "internalType": "string",
          "name": "",
          "type": "string"
        }
      ],
      "stateMutability": "view",
      "type": "function"
    },
    {
      "inputs": [],
      "name": "totalSupply",
      "outputs": [
        {
          "internalType": "uint256",
          "name": "",
          "type": "uint256"
        }
      ],
      "stateMutability": "view",
      "type": "function"
    },
    {
      "inputs": [
        {
          "internalType": "address",
          "name": "from",
          "type": "address"
        },
        {
          "internalType": "address",
          "name": "to",
          "type": "address"
        },
        {
          "internalType": "uint256",
          "name": "tokenId",
          "type": "uint256"
        }
      ],
      "name": "transferFrom",
      "outputs": [],
      "stateMutability": "nonpayable",
      "type": "function"
    }
  ],
  "bytecode": "0x60806040523480156200001157600080fd5b5060405162002fcd38038062002fcd8339810160408190526200003491620003ed565b733cc6cdda760b79bafa08df41ecfa224f810dceb66001858560026200005b838262000524565b5060036200006a828262000524565b505060008055506200007d8282620000b6565b506200008b905033620001e4565b620000a0826001600160801b03831662000236565b620000ac6001620002e1565b50505050620005f0565b6daaeb6d7670e522a718067333cd4e3b15620001e0576001600160a01b0382163b15620001995780156200015857604051633e9f1edf60e11b81523060048201526001600160a01b03831660248201526daaeb6d7670e522a718067333cd4e90637d3e3dbe906044015b600060405180830381600087803b1580156200013b57600080fd5b505af115801562000150573d6000803e3d6000fd5b505050505050565b60405163a0af290360e01b81523060048201526001600160a01b03831660248201526daaeb6d7670e522a718067333cd4e9063a0af29039060440162000120565b604051632210724360e11b81523060048201526daaeb6d7670e522a718067333cd4e90634420e48690602401600060405180830381600087803b1580156200013b57600080fd5b5050565b600980546001600160a01b038381166001600160a01b0319831681179093556040519116919082907f8292fce18fa69edf4db7b94ea2e58241df0ae57f97e0a6c9b29067028bf92d7690600090a35050565b6127108111156200027f5760405162461bcd60e51b815260206004820152600f60248201526e45786365656473206d61782062707360881b604482015260640160405180910390fd5b600a80546001600160a01b0384166001600160b01b03199091168117600160a01b61ffff851602179091556040518281527f90d7ec04bcb8978719414f82e52e4cb651db41d0e6f8cea6118c2191e6183adb9060200160405180910390a25050565b600e805460ff19168215159081179091556040519081527f38475885990d8dfe9ca01f0ef160a1b5514426eab9ddbc953a3353410ba780969060200160405180910390a150565b634e487b7160e01b600052604160045260246000fd5b600082601f8301126200035057600080fd5b81516001600160401b03808211156200036d576200036d62000328565b604051601f8301601f19908116603f0116810190828211818310171562000398576200039862000328565b81604052838152602092508683858801011115620003b557600080fd5b600091505b83821015620003d95785820183015181830184015290820190620003ba565b600093810190920192909252949350505050565b600080600080608085870312156200040457600080fd5b84516001600160401b03808211156200041c57600080fd5b6200042a888389016200033e565b955060208701519150808211156200044157600080fd5b5062000450878288016200033e565b604087015190945090506001600160a01b03811681146200047057600080fd5b60608601519092506001600160801b03811681146200048e57600080fd5b939692955090935050565b600181811c90821680620004ae57607f821691505b602082108103620004cf57634e487b7160e01b600052602260045260246000fd5b50919050565b601f8211156200051f57600081815260208120601f850160051c81016020861015620004fe5750805b601f850160051c820191505b8181101562000150578281556001016200050a565b505050565b81516001600160401b0381111562000540576200054062000328565b620005588162000551845462000499565b84620004d5565b602080601f831160018114620005905760008415620005775750858301515b600019600386901b1c1916600185901b17855562000150565b600085815260208120601f198616915b82811015620005c157888601518255948401946001909101908401620005a0565b5085821015620005e05787850151600019600388901b60f8161c191681555b5050505050600190811b01905550565b6129cd80620006006000396000f3fe608060405234801561001057600080fd5b50600436106102105760003560e01c8063504c6e011161012557806395d89b41116100ad578063b24f2d391161007c578063b24f2d39146104aa578063b88d4fde146104c8578063c87b56dd146104db578063e8a3d485146104ee578063e985e9c5146104f657600080fd5b806395d89b411461045c5780639bcf7a1514610464578063a22cb46514610477578063ac9650d81461048a57600080fd5b806363b45e2d116100f457806363b45e2d1461040a57806370a0823114610412578063754a81d9146104255780638da5cb5b14610438578063938e3d7b1461044957600080fd5b8063504c6e01146103c457806357fd8455146103d1578063600dd5ea146103e45780636352211e146103f757600080fd5b80632419f51b116101a857806341f434341161017757806341f434341461034157806342842e0e1461035657806342966c6814610369578063430c20811461037c5780634cc157df1461038f57600080fd5b80632419f51b146102e15780632a55205a146102f457806332f0cd64146103265780633b1475a71461033957600080fd5b8063095ea7b3116101e4578063095ea7b31461029257806313af4035146102a557806318160ddd146102b857806323b872dd146102ce57600080fd5b806275a3171461021557806301ffc9a71461022a57806306fdde0314610252578063081812fc14610267575b600080fd5b6102286102233660046121bb565b610532565b005b61023d61023836600461221e565b6105b6565b60405190151581526020015b60405180910390f35b61025a610623565b604051610249919061228b565b61027a61027536600461229e565b6106b5565b6040516001600160a01b039091168152602001610249565b6102286102a03660046122b7565b6106f9565b6102286102b33660046122e1565b610712565b600154600054035b604051908152602001610249565b6102286102dc3660046122fc565b610742565b6102c06102ef36600461229e565b61076d565b610307610302366004612338565b6107db565b604080516001600160a01b039093168352602083019190915201610249565b610228610334366004612368565b610818565b6000546102c0565b61027a6daaeb6d7670e522a718067333cd4e81565b6102286103643660046122fc565b610889565b61022861037736600461229e565b6108ae565b61023d61038a3660046122b7565b6108b9565b6103a261039d36600461229e565b610938565b604080516001600160a01b03909316835261ffff909116602083015201610249565b600e5461023d9060ff1681565b6102286103df3660046122e1565b6109a3565b6102286103f23660046122b7565b610a13565b61027a61040536600461229e565b610a41565b600c546102c0565b6102c06104203660046122e1565b610a53565b610228610433366004612385565b610aa1565b6009546001600160a01b031661027a565b610228610457366004612402565b610b0f565b61025a610b3c565b610228610472366004612436565b610b4b565b61022861048536600461245b565b610b7a565b61049d610498366004612492565b610b8e565b6040516102499190612506565b600a546001600160a01b03811690600160a01b900461ffff166103a2565b6102286104d6366004612568565b610c82565b61025a6104e936600461229e565b610caf565b61025a610d9d565b61023d6105043660046125c3565b6001600160a01b03918216600090815260076020908152604080832093909416825291909152205460ff1690565b61053a610e2b565b6105855760405162461bcd60e51b81526020600482015260176024820152762737ba1030baba3437b934bd32b2103a379036b4b73a1760491b60448201526064015b60405180910390fd5b61059761059160005490565b82610e58565b6105b282600160405180602001604052806000815250610eca565b5050565b60006301ffc9a760e01b6001600160e01b0319831614806105e757506380ac58cd60e01b6001600160e01b03198316145b806106025750635b5e139f60e01b6001600160e01b03198316145b8061061d57506001600160e01b0319821663152a902d60e11b145b92915050565b606060028054610632906125f6565b80601f016020809104026020016040519081016040528092919081815260200182805461065e906125f6565b80156106ab5780601f10610680576101008083540402835291602001916106ab565b820191906000526020600020905b81548152906001019060200180831161068e57829003601f168201915b5050505050905090565b60006106c08261106d565b6106dd576040516333d1c03960e21b815260040160405180910390fd5b506000908152600660205260409020546001600160a01b031690565b8161070381611098565b61070d838361115c565b505050565b61071a610e2b565b6107365760405162461bcd60e51b815260040161057c90612630565b61073f816111dd565b50565b826001600160a01b038116331461075c5761075c33611098565b61076784848461122f565b50505050565b6000610778600c5490565b82106107b65760405162461bcd60e51b815260206004820152600d60248201526c092dcecc2d8d2c840d2dcc8caf609b1b604482015260640161057c565b600c82815481106107c9576107c9612658565b90600052602060002001549050919050565b6000806000806107ea86610938565b90945084925061ffff1690506127106108038287612684565b61080d91906126b1565b925050509250929050565b610820610e2b565b6108805760405162461bcd60e51b815260206004820152602b60248201527f4e6f7420617574686f72697a656420746f20736574206f70657261746f72207260448201526a32b9ba3934b1ba34b7b71760a91b606482015260840161057c565b61073f8161123a565b826001600160a01b03811633146108a3576108a333611098565b610767848484611281565b61073f81600161129c565b6000806108c583610a41565b9050806001600160a01b0316846001600160a01b0316148061090c57506001600160a01b0380821660009081526007602090815260408083209388168352929052205460ff165b806109305750836001600160a01b0316610925846106b5565b6001600160a01b0316145b949350505050565b6000818152600b60209081526040808320815180830190925280546001600160a01b03168083526001909101549282019290925282911561097f5780516020820151610999565b600a546001600160a01b03811690600160a01b900461ffff165b9250925050915091565b6109ab610e2b565b610a085760405162461bcd60e51b815260206004820152602860248201527f4e6f7420617574686f72697a656420746f2073756273637269626520746f207260448201526732b3b4b9ba393c9760c11b606482015260840161057c565b61073f81600161144f565b610a1b610e2b565b610a375760405162461bcd60e51b815260040161057c90612630565b6105b2828261155d565b6000610a4c82611603565b5192915050565b60006001600160a01b038216610a7c576040516323d3ad8160e21b815260040160405180910390fd5b506001600160a01b03166000908152600560205260409020546001600160401b031690565b610aa9610e2b565b610aef5760405162461bcd60e51b81526020600482015260176024820152762737ba1030baba3437b934bd32b2103a379036b4b73a1760491b604482015260640161057c565b610b02610afb60005490565b848461171d565b5050610767848483610eca565b610b17610e2b565b610b335760405162461bcd60e51b815260040161057c90612630565b61073f81611781565b606060038054610632906125f6565b610b53610e2b565b610b6f5760405162461bcd60e51b815260040161057c90612630565b61070d83838361185d565b81610b8481611098565b61070d8383611926565b6060816001600160401b03811115610ba857610ba8612119565b604051908082528060200260200182016040528015610bdb57816020015b6060815260200190600190039081610bc65790505b50905060005b82811015610c7b57610c4b30858584818110610bff57610bff612658565b9050602002810190610c1191906126c5565b8080601f0160208091040260200160405190810160405280939291908181526020018383808284376000920191909152506119bb92505050565b828281518110610c5d57610c5d612658565b60200260200101819052508080610c7390612712565b915050610be1565b5092915050565b836001600160a01b0381163314610c9c57610c9c33611098565b610ca8858585856119e7565b5050505050565b6000818152600f6020526040812080546060929190610ccd906125f6565b80601f0160208091040260200160405190810160405280929190818152602001828054610cf9906125f6565b8015610d465780601f10610d1b57610100808354040283529160200191610d46565b820191906000526020600020905b815481529060010190602001808311610d2957829003601f168201915b50505050509050600081511115610d5d5792915050565b6000610d6884611a2b565b905080610d7485611bc7565b604051602001610d8592919061272b565b60405160208183030381529060405292505050919050565b60088054610daa906125f6565b80601f0160208091040260200160405190810160405280929190818152602001828054610dd6906125f6565b8015610e235780601f10610df857610100808354040283529160200191610e23565b820191906000526020600020905b815481529060010190602001808311610e0657829003601f168201915b505050505081565b6000610e3f6009546001600160a01b031690565b6001600160a01b0316336001600160a01b031614905090565b6000828152600f602052604090208054610e71906125f6565b159050610eb25760405162461bcd60e51b815260206004820152600f60248201526e15549248185b1c9958591e481cd95d608a1b604482015260640161057c565b6000828152600f6020526040902061070d82826127a0565b6000546001600160a01b038416610ef357604051622e076360e81b815260040160405180910390fd5b82600003610f145760405163b562e8dd60e01b815260040160405180910390fd5b6001600160a01b038416600081815260056020908152604080832080546fffffffffffffffffffffffffffffffff1981166001600160401b038083168b0181169182176801000000000000000067ffffffffffffffff1990941690921783900481168b01811690920217909155858452600490925290912080546001600160e01b0319168317600160a01b42909316929092029190911790558190818501903b1561102a575b60405182906001600160a01b03881690600090600080516020612978833981519152908290a4610ff36000878480600101955087611cc7565b611010576040516368d2bf6b60e11b815260040160405180910390fd5b808210610fba57826000541461102557600080fd5b61105d565b5b6040516001830192906001600160a01b03881690600090600080516020612978833981519152908290a480821061102b575b5060009081556107679085838684565b600080548210801561061d575050600090815260046020526040902054600160e01b900460ff161590565b600e5460ff161561073f576daaeb6d7670e522a718067333cd4e3b1561073f57604051633185c44d60e21b81523060048201526001600160a01b03821660248201526daaeb6d7670e522a718067333cd4e9063c617113490604401602060405180830381865afa158015611110573d6000803e3d6000fd5b505050506040513d601f19601f82011682018060405250810190611134919061285f565b61073f57604051633b79c77360e21b81526001600160a01b038216600482015260240161057c565b600061116782610a41565b9050806001600160a01b0316836001600160a01b03160361119b5760405163250fdee360e21b815260040160405180910390fd5b336001600160a01b038216146111d2576111b58133610504565b6111d2576040516367d9dca160e11b815260040160405180910390fd5b61070d838383611db2565b600980546001600160a01b038381166001600160a01b0319831681179093556040519116919082907f8292fce18fa69edf4db7b94ea2e58241df0ae57f97e0a6c9b29067028bf92d7690600090a35050565b61070d838383611e0e565b600e805460ff19168215159081179091556040519081527f38475885990d8dfe9ca01f0ef160a1b5514426eab9ddbc953a3353410ba780969060200160405180910390a150565b61070d83838360405180602001604052806000815250610c82565b60006112a783611603565b8051909150821561130d576000336001600160a01b03831614806112d057506112d08233610504565b806112eb5750336112e0866106b5565b6001600160a01b0316145b90508061130b57604051632ce44b5f60e11b815260040160405180910390fd5b505b61131960008583611db2565b6001600160a01b0380821660008181526005602090815260408083208054600160801b6000196001600160401b0380841691909101811667ffffffffffffffff198416811783900482166001908101831690930277ffffffffffffffff0000000000000000ffffffffffffffff19909416179290921783558b86526004909452828520805460ff60e01b1942909316600160a01b026001600160e01b03199091169097179690961716600160e01b17855591890180845292208054919490911661141757600054821461141757805460208701516001600160401b0316600160a01b026001600160e01b03199091166001600160a01b038716171781555b5050604051869250600091506001600160a01b03841690600080516020612978833981519152908390a4505060018054810190555050565b6daaeb6d7670e522a718067333cd4e3b156105b2576001600160a01b0382163b1561152c5780156114ec57604051633e9f1edf60e11b81523060048201526001600160a01b03831660248201526daaeb6d7670e522a718067333cd4e90637d3e3dbe906044015b600060405180830381600087803b1580156114d057600080fd5b505af11580156114e4573d6000803e3d6000fd5b505050505050565b60405163a0af290360e01b81523060048201526001600160a01b03831660248201526daaeb6d7670e522a718067333cd4e9063a0af2903906044016114b6565b604051632210724360e11b81523060048201526daaeb6d7670e522a718067333cd4e90634420e486906024016114b6565b6127108111156115a15760405162461bcd60e51b815260206004820152600f60248201526e45786365656473206d61782062707360881b604482015260640161057c565b600a80546001600160a01b0384166001600160b01b03199091168117600160a01b61ffff851602179091556040518281527f90d7ec04bcb8978719414f82e52e4cb651db41d0e6f8cea6118c2191e6183adb9060200160405180910390a25050565b60408051606081018252600080825260208201819052918101919091528160005481101561170457600081815260046020908152604091829020825160608101845290546001600160a01b0381168252600160a01b81046001600160401b031692820192909252600160e01b90910460ff161515918101829052906117025780516001600160a01b031615611699579392505050565b5060001901600081815260046020908152604091829020825160608101845290546001600160a01b038116808352600160a01b82046001600160401b031693830193909352600160e01b900460ff16151592810192909252156116fd579392505050565b611699565b505b604051636f96cda160e11b815260040160405180910390fd5b60008061172a848661287c565b600c8054600181019091557fdf6966c971051c3d54ec59162606531493a51404a002842f56009d7e5cf4a8c7018190556000818152600d6020526040902090925082915061177884826127a0565b50935093915050565b600060088054611790906125f6565b80601f01602080910402602001604051908101604052809291908181526020018280546117bc906125f6565b80156118095780601f106117de57610100808354040283529160200191611809565b820191906000526020600020905b8154815290600101906020018083116117ec57829003601f168201915b50505050509050816008908161181f91906127a0565b507fc9c7c3fe08b88b4df9d4d47ef47d2c43d55c025a0ba88ca442580ed9e7348a16818360405161185192919061288f565b60405180910390a15050565b6127108111156118a15760405162461bcd60e51b815260206004820152600f60248201526e45786365656473206d61782062707360881b604482015260640161057c565b6040805180820182526001600160a01b0384811680835260208084018681526000898152600b8352869020945185546001600160a01b031916941693909317845591516001909301929092559151838152909185917f7365cf4122f072a3365c20d54eff9b38d73c096c28e1892ec8f5b0e403a0f12d910160405180910390a3505050565b336001600160a01b0383160361194f5760405163b06307db60e01b815260040160405180910390fd5b3360008181526007602090815260408083206001600160a01b03871680855290835292819020805460ff191686151590811790915590519081529192917f17307eab39ab6107e8899845ad3d59bd9653f200f220920489ca2b5937696c31910160405180910390a35050565b60606119e0838360405180606001604052806027815260200161295160279139611fe7565b9392505050565b6119f2848484611e0e565b6001600160a01b0383163b1561076757611a0e84848484611cc7565b610767576040516368d2bf6b60e11b815260040160405180910390fd5b60606000611a38600c5490565b90506000600c805480602002602001604051908101604052809291908181526020018280548015611a8857602002820191906000526020600020905b815481526020019060010190808311611a74575b5050505050905060005b82811015611b8c57818181518110611aac57611aac612658565b6020026020010151851015611b7a57600d6000838381518110611ad157611ad1612658565b602002602001015181526020019081526020016000208054611af2906125f6565b80601f0160208091040260200160405190810160405280929190818152602001828054611b1e906125f6565b8015611b6b5780601f10611b4057610100808354040283529160200191611b6b565b820191906000526020600020905b815481529060010190602001808311611b4e57829003601f168201915b50505050509350505050919050565b611b8560018261287c565b9050611a92565b5060405162461bcd60e51b815260206004820152600f60248201526e125b9d985b1a59081d1bdad95b9259608a1b604482015260640161057c565b606081600003611bee5750506040805180820190915260018152600360fc1b602082015290565b8160005b8115611c185780611c0281612712565b9150611c119050600a836126b1565b9150611bf2565b6000816001600160401b03811115611c3257611c32612119565b6040519080825280601f01601f191660200182016040528015611c5c576020820181803683370190505b5090505b841561093057611c716001836128bd565b9150611c7e600a866128d0565b611c8990603061287c565b60f81b818381518110611c9e57611c9e612658565b60200101906001600160f81b031916908160001a905350611cc0600a866126b1565b9450611c60565b604051630a85bd0160e11b81526000906001600160a01b0385169063150b7a0290611cfc9033908990889088906004016128e4565b6020604051808303816000875af1925050508015611d37575060408051601f3d908101601f19168201909252611d3491810190612917565b60015b611d95573d808015611d65576040519150601f19603f3d011682016040523d82523d6000602084013e611d6a565b606091505b508051600003611d8d576040516368d2bf6b60e11b815260040160405180910390fd5b805181602001fd5b6001600160e01b031916630a85bd0160e11b149050949350505050565b60008281526006602052604080822080546001600160a01b0319166001600160a01b0387811691821790925591518593918516917f8c5be1e5ebec7d5bd14f71427d1e84f3dd0314c0f7b2291e5b200ac8c7c3b92591a4505050565b6000611e1982611603565b9050836001600160a01b031681600001516001600160a01b031614611e505760405162a1148160e81b815260040160405180910390fd5b6000336001600160a01b0386161480611e6e5750611e6e8533610504565b80611e89575033611e7e846106b5565b6001600160a01b0316145b905080611ea957604051632ce44b5f60e11b815260040160405180910390fd5b6001600160a01b038416611ed057604051633a954ecd60e21b815260040160405180910390fd5b611edc60008487611db2565b6001600160a01b038581166000908152600560209081526040808320805467ffffffffffffffff198082166001600160401b0392831660001901831617909255898616808652838620805493841693831660019081018416949094179055898652600490945282852080546001600160e01b031916909417600160a01b42909216919091021783558701808452922080549193909116611fb0576000548214611fb057805460208601516001600160401b0316600160a01b026001600160e01b03199091166001600160a01b038a16171781555b50505082846001600160a01b0316866001600160a01b031660008051602061297883398151915260405160405180910390a4610ca8565b60606001600160a01b0384163b61204f5760405162461bcd60e51b815260206004820152602660248201527f416464726573733a2064656c65676174652063616c6c20746f206e6f6e2d636f6044820152651b9d1c9858dd60d21b606482015260840161057c565b600080856001600160a01b03168560405161206a9190612934565b600060405180830381855af49150503d80600081146120a5576040519150601f19603f3d011682016040523d82523d6000602084013e6120aa565b606091505b50915091506120ba8282866120c4565b9695505050505050565b606083156120d35750816119e0565b8251156120e35782518084602001fd5b8160405162461bcd60e51b815260040161057c919061228b565b80356001600160a01b038116811461211457600080fd5b919050565b634e487b7160e01b600052604160045260246000fd5b600082601f83011261214057600080fd5b81356001600160401b038082111561215a5761215a612119565b604051601f8301601f19908116603f0116810190828211818310171561218257612182612119565b8160405283815286602085880101111561219b57600080fd5b836020870160208301376000602085830101528094505050505092915050565b600080604083850312156121ce57600080fd5b6121d7836120fd565b915060208301356001600160401b038111156121f257600080fd5b6121fe8582860161212f565b9150509250929050565b6001600160e01b03198116811461073f57600080fd5b60006020828403121561223057600080fd5b81356119e081612208565b60005b8381101561225657818101518382015260200161223e565b50506000910152565b6000815180845261227781602086016020860161223b565b601f01601f19169290920160200192915050565b6020815260006119e0602083018461225f565b6000602082840312156122b057600080fd5b5035919050565b600080604083850312156122ca57600080fd5b6122d3836120fd565b946020939093013593505050565b6000602082840312156122f357600080fd5b6119e0826120fd565b60008060006060848603121561231157600080fd5b61231a846120fd565b9250612328602085016120fd565b9150604084013590509250925092565b6000806040838503121561234b57600080fd5b50508035926020909101359150565b801515811461073f57600080fd5b60006020828403121561237a57600080fd5b81356119e08161235a565b6000806000806080858703121561239b57600080fd5b6123a4856120fd565b93506020850135925060408501356001600160401b03808211156123c757600080fd5b6123d38883890161212f565b935060608701359150808211156123e957600080fd5b506123f68782880161212f565b91505092959194509250565b60006020828403121561241457600080fd5b81356001600160401b0381111561242a57600080fd5b6109308482850161212f565b60008060006060848603121561244b57600080fd5b83359250612328602085016120fd565b6000806040838503121561246e57600080fd5b612477836120fd565b915060208301356124878161235a565b809150509250929050565b600080602083850312156124a557600080fd5b82356001600160401b03808211156124bc57600080fd5b818501915085601f8301126124d057600080fd5b8135818111156124df57600080fd5b8660208260051b85010111156124f457600080fd5b60209290920196919550909350505050565b6000602080830181845280855180835260408601915060408160051b870101925083870160005b8281101561255b57603f1988860301845261254985835161225f565b9450928501929085019060010161252d565b5092979650505050505050565b6000806000806080858703121561257e57600080fd5b612587856120fd565b9350612595602086016120fd565b92506040850135915060608501356001600160401b038111156125b757600080fd5b6123f68782880161212f565b600080604083850312156125d657600080fd5b6125df836120fd565b91506125ed602084016120fd565b90509250929050565b600181811c9082168061260a57607f821691505b60208210810361262a57634e487b7160e01b600052602260045260246000fd5b50919050565b6020808252600e908201526d139bdd08185d5d1a1bdc9a5e995960921b604082015260600190565b634e487b7160e01b600052603260045260246000fd5b634e487b7160e01b600052601160045260246000fd5b808202811582820484141761061d5761061d61266e565b634e487b7160e01b600052601260045260246000fd5b6000826126c0576126c061269b565b500490565b6000808335601e198436030181126126dc57600080fd5b8301803591506001600160401b038211156126f657600080fd5b60200191503681900382131561270b57600080fd5b9250929050565b6000600182016127245761272461266e565b5060010190565b6000835161273d81846020880161223b565b83519083019061275181836020880161223b565b01949350505050565b601f82111561070d57600081815260208120601f850160051c810160208610156127815750805b601f850160051c820191505b818110156114e45782815560010161278d565b81516001600160401b038111156127b9576127b9612119565b6127cd816127c784546125f6565b8461275a565b602080601f83116001811461280257600084156127ea5750858301515b600019600386901b1c1916600185901b1785556114e4565b600085815260208120601f198616915b8281101561283157888601518255948401946001909101908401612812565b508582101561284f5787850151600019600388901b60f8161c191681555b5050505050600190811b01905550565b60006020828403121561287157600080fd5b81516119e08161235a565b8082018082111561061d5761061d61266e565b6040815260006128a2604083018561225f565b82810360208401526128b4818561225f565b95945050505050565b8181038181111561061d5761061d61266e565b6000826128df576128df61269b565b500690565b6001600160a01b03858116825284166020820152604081018390526080606082018190526000906120ba9083018461225f565b60006020828403121561292957600080fd5b81516119e081612208565b6000825161294681846020870161223b565b919091019291505056fe416464726573733a206c6f772d6c6576656c2064656c65676174652063616c6c206661696c6564ddf252ad1be2c89b69c2b068fc378daa952ba7f163c4a11628f55a4df523b3efa2646970667358221220c5c24bfb9eb29a8d1b68ca74373004b07967fb9201d94388b5b038a3c654853a64736f6c63430008110033",
  "linkReferences": {},
  "deployedLinkReferences": {}
}